{
  "contractName": "Remittance",
  "abi": [
    {
      "constant": true,
      "inputs": [],
      "name": "aliceAddress",
      "outputs": [
        {
          "name": "",
          "type": "address"
        }
      ],
      "payable": false,
      "stateMutability": "view",
      "type": "function"
    },
    {
      "constant": true,
      "inputs": [],
      "name": "bobAddress",
      "outputs": [
        {
          "name": "",
          "type": "address"
        }
      ],
      "payable": false,
      "stateMutability": "view",
      "type": "function"
    },
    {
      "constant": true,
      "inputs": [
        {
          "name": "",
          "type": "address"
        }
      ],
      "name": "funds",
      "outputs": [
        {
          "name": "",
          "type": "uint256"
        }
      ],
      "payable": false,
      "stateMutability": "view",
      "type": "function"
    },
    {
      "constant": true,
      "inputs": [],
      "name": "carolAddress",
      "outputs": [
        {
          "name": "",
          "type": "address"
        }
      ],
      "payable": false,
      "stateMutability": "view",
      "type": "function"
    },
    {
      "inputs": [
        {
          "name": "_bobAddress",
          "type": "address"
        },
        {
          "name": "_carolAddress",
          "type": "address"
        },
        {
          "name": "_bobHashedPw",
          "type": "bytes32"
        },
        {
          "name": "_carolHashedPw",
          "type": "bytes32"
        }
      ],
      "payable": true,
      "stateMutability": "payable",
      "type": "constructor"
    },
    {
      "payable": true,
      "stateMutability": "payable",
      "type": "fallback"
    },
    {
      "anonymous": false,
      "inputs": [
        {
          "indexed": false,
          "name": "amount",
          "type": "uint256"
        }
      ],
      "name": "fundsTransferred",
      "type": "event"
    },
    {
      "constant": true,
      "inputs": [
        {
          "name": "_address",
          "type": "address"
        }
      ],
      "name": "getBalance",
      "outputs": [
        {
          "name": "",
          "type": "uint256"
        }
      ],
      "payable": false,
      "stateMutability": "view",
      "type": "function"
    },
    {
      "constant": false,
      "inputs": [
        {
          "name": "bobPw",
          "type": "bytes"
        },
        {
          "name": "carolPw",
          "type": "bytes"
        }
      ],
      "name": "transferEther",
      "outputs": [],
      "payable": false,
      "stateMutability": "nonpayable",
      "type": "function"
    },
    {
      "constant": false,
      "inputs": [],
      "name": "withdraw",
      "outputs": [],
      "payable": false,
      "stateMutability": "nonpayable",
      "type": "function"
    }
  ],
  "bytecode": "0x60806040526000600460006101000a81548160ff021916908315150217905550604051608080610c1e8339810180604052608081101561003e57600080fd5b8101908080519060200190929190805190602001909291908051906020019092919080519060200190929190505050336000806101000a81548173ffffffffffffffffffffffffffffffffffffffff021916908373ffffffffffffffffffffffffffffffffffffffff16021790555083600160006101000a81548173ffffffffffffffffffffffffffffffffffffffff021916908373ffffffffffffffffffffffffffffffffffffffff16021790555082600260006101000a81548173ffffffffffffffffffffffffffffffffffffffff021916908373ffffffffffffffffffffffffffffffffffffffff16021790555081600581905550806006819055503460036000600260009054906101000a900473ffffffffffffffffffffffffffffffffffffffff1673ffffffffffffffffffffffffffffffffffffffff1673ffffffffffffffffffffffffffffffffffffffff1681526020019081526020016000208190555050505050610a68806101b66000396000f3fe608060405260043610610083576000357c0100000000000000000000000000000000000000000000000000000000900463ffffffff1680633ccfd60b146100f3578063607ce9a61461010a5780636d54f07114610269578063cd922de2146102c0578063e2ae93fb14610317578063e69336a01461037c578063f8b2cb4f146103d3575b34600360008060009054906101000a900473ffffffffffffffffffffffffffffffffffffffff1673ffffffffffffffffffffffffffffffffffffffff1673ffffffffffffffffffffffffffffffffffffffff16815260200190815260200160002060008282540192505081905550005b3480156100ff57600080fd5b50610108610438565b005b34801561011657600080fd5b506102676004803603604081101561012d57600080fd5b810190808035906020019064010000000081111561014a57600080fd5b82018360208201111561015c57600080fd5b8035906020019184600183028401116401000000008311171561017e57600080fd5b91908080601f016020809104026020016040519081016040528093929190818152602001838380828437600081840152601f19601f820116905080830192505050505050509192919290803590602001906401000000008111156101e157600080fd5b8201836020820111156101f357600080fd5b8035906020019184600183028401116401000000008311171561021557600080fd5b91908080601f016020809104026020016040519081016040528093929190818152602001838380828437600081840152601f19601f82011690508083019250505050505050919291929050505061067e565b005b34801561027557600080fd5b5061027e610992565b604051808273ffffffffffffffffffffffffffffffffffffffff1673ffffffffffffffffffffffffffffffffffffffff16815260200191505060405180910390f35b3480156102cc57600080fd5b506102d56109b7565b604051808273ffffffffffffffffffffffffffffffffffffffff1673ffffffffffffffffffffffffffffffffffffffff16815260200191505060405180910390f35b34801561032357600080fd5b506103666004803603602081101561033a57600080fd5b81019080803573ffffffffffffffffffffffffffffffffffffffff1690602001909291905050506109dd565b6040518082815260200191505060405180910390f35b34801561038857600080fd5b506103916109f5565b604051808273ffffffffffffffffffffffffffffffffffffffff1673ffffffffffffffffffffffffffffffffffffffff16815260200191505060405180910390f35b3480156103df57600080fd5b50610422600480360360208110156103f657600080fd5b81019080803573ffffffffffffffffffffffffffffffffffffffff169060200190929190505050610a1b565b6040518082815260200191505060405180910390f35b6000809054906101000a900473ffffffffffffffffffffffffffffffffffffffff1673ffffffffffffffffffffffffffffffffffffffff163373ffffffffffffffffffffffffffffffffffffffff16141515610548576040517f08c379a00000000000000000000000000000000000000000000000000000000081526004018080602001828103825260418152602001807f4f6e6c7920746865206465706c6f79657220616c6963652063616e207769746881526020017f647261772065787472612066756e64732073656e7420746f20636f6e7472616381526020017f740000000000000000000000000000000000000000000000000000000000000081525060600191505060405180910390fd5b6000600360008060009054906101000a900473ffffffffffffffffffffffffffffffffffffffff1673ffffffffffffffffffffffffffffffffffffffff1673ffffffffffffffffffffffffffffffffffffffff1681526020019081526020016000205490506000600360008060009054906101000a900473ffffffffffffffffffffffffffffffffffffffff1673ffffffffffffffffffffffffffffffffffffffff1673ffffffffffffffffffffffffffffffffffffffff168152602001908152602001600020819055506000809054906101000a900473ffffffffffffffffffffffffffffffffffffffff1673ffffffffffffffffffffffffffffffffffffffff166108fc829081150290604051600060405180830381858888f1935050505015801561067a573d6000803e3d6000fd5b5050565b600260009054906101000a900473ffffffffffffffffffffffffffffffffffffffff1673ffffffffffffffffffffffffffffffffffffffff163373ffffffffffffffffffffffffffffffffffffffff16141515610769576040517f08c379a00000000000000000000000000000000000000000000000000000000081526004018080602001828103825260218152602001807f4f6e6c79206361726f6c2063616e2063616c6c20746869732066756e6374696f81526020017f6e0000000000000000000000000000000000000000000000000000000000000081525060400191505060405180910390fd5b600060036000600260009054906101000a900473ffffffffffffffffffffffffffffffffffffffff1673ffffffffffffffffffffffffffffffffffffffff1673ffffffffffffffffffffffffffffffffffffffff16815260200190815260200160002054905082805190602001206005541480156107ef57508180519060200120600654145b1561091f57600060036000600260009054906101000a900473ffffffffffffffffffffffffffffffffffffffff1673ffffffffffffffffffffffffffffffffffffffff1673ffffffffffffffffffffffffffffffffffffffff16815260200190815260200160002081905550600260009054906101000a900473ffffffffffffffffffffffffffffffffffffffff1673ffffffffffffffffffffffffffffffffffffffff168160405180600001905060006040518083038185875af1925050503d80600081146108db576040519150601f19603f3d011682016040523d82523d6000602084013e6108e0565b606091505b5050507fba11c03036c3c2cea0a1fbdfdfe211d0d3d7f8a81ef6b69b220629a00c6fdb67816040518082815260200191505060405180910390a161098d565b6040517f08c379a000000000000000000000000000000000000000000000000000000000815260040180806020018281038252601d8152602001807f496e636f72726563742070617373776f726473207375626d697474656400000081525060200191505060405180910390fd5b505050565b6000809054906101000a900473ffffffffffffffffffffffffffffffffffffffff1681565b600160009054906101000a900473ffffffffffffffffffffffffffffffffffffffff1681565b60036020528060005260406000206000915090505481565b600260009054906101000a900473ffffffffffffffffffffffffffffffffffffffff1681565b60008173ffffffffffffffffffffffffffffffffffffffff1631905091905056fea165627a7a72305820a65d3de9303f8302751d710dc6d1d299359436ac49d9013bb96f8c2bd453d9b60029",
  "source": "pragma solidity >=0.4.22 <0.9.0;\n\ncontract Remittance {\n    \n   address payable public aliceAddress;\n   address payable public bobAddress;\n   address payable public carolAddress;\n   mapping (address => uint) public funds;\n   bool mutex = false;\n   \n   bytes32 bobHashedPw;\n   bytes32 carolHashedPw;\n    \n   event fundsTransferred(uint amount);   \n    \n    //The contract is created by Alice and she will fund it initially\n    //All passwords are hashed offline and the hashes stored in the contract\n    constructor(address payable _bobAddress, address payable _carolAddress, bytes32 _bobHashedPw, bytes32 _carolHashedPw) public payable {\n        //Alice is set at the msg.sender since she's the one creating the contract\n        aliceAddress = msg.sender;\n        bobAddress = _bobAddress;\n        carolAddress = _carolAddress;\n        bobHashedPw = _bobHashedPw;\n        carolHashedPw = _carolHashedPw;\n        funds[carolAddress] = msg.value;\n    }\n    \n    function getBalance(address _address) public view returns(uint) {\n        return address(_address).balance;\n    }\n    \n    function transferEther(bytes memory bobPw, bytes memory carolPw) public {\n        require(msg.sender == carolAddress, \"Only carol can call this function\");\n        uint amount = funds[carolAddress];\n        if ( (bobHashedPw == keccak256(bobPw)) && (carolHashedPw == keccak256(carolPw))) {\n           funds[carolAddress] = 0;\n           carolAddress.call.value(amount)(\"\");\n           emit fundsTransferred(amount);\n        } else {\n            revert('Incorrect passwords submitted');\n        }\n    }\n    \n    function withdraw() public {\n        require(msg.sender == aliceAddress, \"Only the deployer alice can withdraw extra funds sent to contract\");\n        uint amount = funds[aliceAddress];\n        funds[aliceAddress] = 0;\n        aliceAddress.transfer(amount);\n    }\n\n    //Extra funds goto Alice's address\n    function () external payable {\n        funds[aliceAddress] += msg.value;\n    }\n}",
  "sourcePath": "/home/vagrant/DAPPS/remittance/contracts/Remittance.sol",
  "compiler": {
    "name": "solc",
    "version": "0.5.0+commit.1d4f565a.Emscripten.clang"
  },
  "schemaVersion": "3.0.3",
  "updatedAt": "2021-03-26T22:15:09.700Z",
  "devdoc": {
    "methods": {}
  },
  "userdoc": {
    "methods": {}
  }
}